{
    "contractName": "MyContract",
    "abi": [
        {
            "inputs": [
                {
                    "internalType": "string",
                    "name": "_name",
                    "type": "string"
                }
            ],
            "stateMutability": "nonpayable",
            "type": "constructor"
        },
        {
            "inputs": [
                {
                    "internalType": "string",
                    "name": "_name",
                    "type": "string"
                }
            ],
            "name": "changeName",
            "outputs": [],
            "stateMutability": "nonpayable",
            "type": "function"
        },
        {
            "inputs": [],
            "name": "getName",
            "outputs": [
                {
                    "internalType": "string",
                    "name": "",
                    "type": "string"
                }
            ],
            "stateMutability": "view",
            "type": "function"
        }
    ],
    "bytecode": "608060405234801561001057600080fd5b5060405161054c38038061054c83398101604081905261002f916100f8565b8051610042906000906020840190610049565b5050610201565b828054610055906101c7565b90600052602060002090601f01602090048101928261007757600085556100bd565b82601f1061009057805160ff19168380011785556100bd565b828001600101855582156100bd579182015b828111156100bd5782518255916020019190600101906100a2565b506100c99291506100cd565b5090565b5b808211156100c957600081556001016100ce565b634e487b7160e01b600052604160045260246000fd5b6000602080838503121561010b57600080fd5b82516001600160401b038082111561012257600080fd5b818501915085601f83011261013657600080fd5b815181811115610148576101486100e2565b604051601f8201601f19908116603f01168101908382118183101715610170576101706100e2565b81604052828152888684870101111561018857600080fd5b600093505b828410156101aa578484018601518185018701529285019261018d565b828411156101bb5760008684830101525b98975050505050505050565b600181811c908216806101db57607f821691505b6020821081036101fb57634e487b7160e01b600052602260045260246000fd5b50919050565b61033c806102106000396000f3fe608060405234801561001057600080fd5b50600436106100365760003560e01c806317d7de7c1461003b5780635353a2d814610059575b600080fd5b61004361006e565b60405161005091906101b0565b60405180910390f35b61006c61006736600461021b565b610100565b005b60606000805461007d906102cc565b80601f01602080910402602001604051908101604052809291908181526020018280546100a9906102cc565b80156100f65780601f106100cb576101008083540402835291602001916100f6565b820191906000526020600020905b8154815290600101906020018083116100d957829003601f168201915b5050505050905090565b8051610113906000906020840190610117565b5050565b828054610123906102cc565b90600052602060002090601f016020900481019282610145576000855561018b565b82601f1061015e57805160ff191683800117855561018b565b8280016001018555821561018b579182015b8281111561018b578251825591602001919060010190610170565b5061019792915061019b565b5090565b5b80821115610197576000815560010161019c565b600060208083528351808285015260005b818110156101dd578581018301518582016040015282016101c1565b818111156101ef576000604083870101525b50601f01601f1916929092016040019392505050565b634e487b7160e01b600052604160045260246000fd5b60006020828403121561022d57600080fd5b813567ffffffffffffffff8082111561024557600080fd5b818401915084601f83011261025957600080fd5b81358181111561026b5761026b610205565b604051601f8201601f19908116603f0116810190838211818310171561029357610293610205565b816040528281528760208487010111156102ac57600080fd5b826020860160208301376000928101602001929092525095945050505050565b600181811c908216806102e057607f821691505b60208210810361030057634e487b7160e01b600052602260045260246000fd5b5091905056fea2646970667358221220dde451d534cea1dfcc8fd2ab7c00efd62a7349b2d53afa3048b9ace8af4c2e8264736f6c634300080d0033",
    "sourcePath": "/home/eurogestion/node/sol-project/contracts/MyContract.sol",
    "compiler": {
        "name": "solc",
        "version": "0.8.13+commit.abaa5c0e"
    },
    "functionHashes": {
        "changeName(string)": "5353a2d8",
        "getName()": "17d7de7c"
    },
    "gasEstimates": {
        "creation": {
            "codeDepositCost": "165600",
            "executionCost": "infinite",
            "totalCost": "infinite"
        },
        "external": {
            "changeName(string)": "infinite",
            "getName()": "infinite"
        }
    }
}